:040000008A11112828
:10000800FE00030E83120313D6000408D7000A0863
:10001800D8007F08D9008A15452E8A15DD2D83164C
:1000280003133808BE003908BF003A08C00003109F
:100038003F0D400DC1004108C4003B08BE003C080C
:10004800BF003D08C00003103F0D400DC10041082E
:10005800C3004408031D31284228430844020318FA
:10006800362837284A284403FF3A4307BE00193088
:100078003E02031C402841284A2842283B08B80071
:100088003C08B9003D08BA00562956294308031D03
:100098004E285E28440843020318532854285F2832
:1000A8004303FF3A4407BE0019303E02031C5D2893
:1000B8005E285F2856290630BE003E08C200BA1FD7
:1000C800662867286828C217BD1F6B286C286D280A
:1000D8004217B917FF30B805FF30B9050030BA0527
:1000E800BC17FF30BB05FF30BC050030BD05430819
:1000F8004402031880288128B2288228013003107E
:10010800BB0DBC0DBD0DFF3E031D83280130C3028E
:1001180043084406031991289228AA280130C202EC
:1001280042080739031D99289A288228AA28AA284C
:10013800AA2801300310BA0CB90CB80CFF3E031DF5
:100148009E280130BE003E08C407AA28440843067A
:10015800031DAF28B0289D28E928E9284408430250
:100168000318B728B828E928B92801300310B80DB2
:10017800B90DBA0DFF3E031DBA280130C402430869
:1001880044060319C828C928E1280130C2024208D8
:100198000739031DD028D128B928E128E128E1280A
:1001A80001300310BD0CBC0CBB0CFF3E031DD52851
:1001B8000130BE003E08C307E12844084306031D7A
:1001C800E628E728D428E928E928C21FEC28ED28E2
:1001D800FE28FF30B806FF30B906FF30BA060130F6
:1001E800B807003003180130B90700300318013090
:1001F800BA07FE28421F012902291329FF30BB062E
:10020800FF30BC06FF30BD060130BB0700300318C5
:100218000130BC07003003180130BD071329C201A3
:100228003808BB07390803110318390A03191D29AF
:10023800BC073A08031103183A0A03192429BD0711
:10024800BD1F272928293C29FF30BB06FF30BC06E3
:10025800FF30BD060130BB07003003180130BC0772
:10026800003003180130BD07C2010314C20D3C2938
:100278003B08A0003C08A1003D08A2004408BE00BD
:100288003E08A3004208BF003F08A4008A15832740
:100298008A11831603132008B8002108B900220820
:1002A800BA0056290800831203133E08C4003F0809
:1002B800C5004008C6000310450D460DC700470895
:1002C800CA004108C4004208C5004308C60003101C
:1002D800450D460DC7004708C9004A08031D752982
:1002E800862949084A0203187A297B298E294A0354
:1002F800FF3A4907C40019304402031C84298529A0
:100308008E2986294108BE004208BF004308C00064
:100318009A2A9A2A4908031D9229A2294A084902B9
:10032800031897299829A3294903FF3A4A07C400C3
:1003380019304402031CA129A229A3299A2A0630AC
:10034800C4004408C800C01FAA29AB29AC29C81793
:10035800C31FAF29B029B1294817BF17FF30BE0501
:10036800FF30BF050030C005C217FF30C105FF30A0
:10037800C2050030C30549084A020318C429C52923
:10038800F629C62901300310C10DC20DC30DFF3E69
:10039800031DC7290130C90249084A060319D5298E
:1003A800D629EE290130C80248080739031DDD297E
:1003B800DE29C629EE29EE29EE2901300310C00CEA
:1003C800BF0CBE0CFF3E031DE2290130C4004408E7
:1003D800CA07EE294A084906031DF329F429E12929
:1003E8002D2A2D2A4A0849020318FB29FC292D2AFF
:1003F800FD2901300310BE0DBF0DC00DFF3E031DCA
:10040800FE290130CA0249084A0603190C2A0D2A96
:10041800252A0130C80248080739031D142A152A5D
:10042800FD29252A252A252A01300310C30CC20CD0
:10043800C10CFF3E031D192A0130C4004408C90736
:10044800252A4A084906031D2A2A2B2A182A2D2A52
:100458002D2AC81F302A312A422AFF30BE06FF3013
:10046800BF06FF30C0060130BE0700300318013058
:10047800BF07003003180130C007422A481F452A29
:10048800462A572AFF30C106FF30C206FF30C3068E
:100498000130C107003003180130C20700300318CB
:1004A8000130C307572AC8013E08C1073F08031196
:1004B80003183F0A0319612AC207400803110318E9
:1004C800400A0319682AC307C31F6B2A6C2A802AAB
:1004D800FF30C106FF30C206FF30C3060130C10736
:1004E800003003180130C207003003180130C30779
:1004F800C8010314C80D802A4108F0004208F10021
:100508004308F2004A08C4004408F3004808C5003C
:100518004508F4008A1508278A1170088312031306
:10052800BE007108BF007208C0009A2A080083162E
:1005380003132808AE002908AF002A08B0000310EA
:100548002F0D300DB1003108B200B208031DAD2ADD
:10055800AE2AB62A0030A8000030A9000030AA0050
:10056800862B862B2B08AE002C08AF002D08B00078
:1005780003102F0D300DB1003108B700B708031D67
:10058800C62AC72ACF2A0030A8000030A9000030A8
:10059800AA00862B862B37087B3EAE002E08B207B2
:1005A8002808AE002908AF002A08B0001030031050
:1005B800B00CAF0CAE0CFF3E031DDB2A2E08B100B9
:1005C8003108B7002B08AE002C08AF002D08B0008A
:1005D80010300310B00CAF0CAE0CFF3E031DED2A1B
:1005E8002E08B1003108B7068030AE002E08B705D6
:1005F800A917AC17FF30AB05FF30AC050030AD05CF
:100608000030B3000030B4000030B5000730AE0051
:100618002E08B6000F2B281C122B132B242B2B086B
:10062800B3072C08031103182C0A03191C2BB40751
:100638002D08031103182D0A0319232BB507242BA2
:1006480001300310AA0CA90CA80CFF3E031D252B92
:1006580001300310AB0DAC0DAD0DFF3E031D2D2B6E
:100668000130B602031D392B3A2B0F2B3B2B0930D7
:10067800AE002E08B600402B281C432B442B552BCC
:100688002B08B3072C08031103182C0A03194D2B48
:10069800B4072D08031103182D0A0319542BB507A5
:1006A800552B01300310AA0CA90CA80CFF3E031D02
:1006B800562B01300310B50CB40CB30CFF3E031DD0
:1006C8005E2B0130B602031D6A2B6B2B402B6C2B63
:1006D8003308A0003408A1003508A2003208AE0093
:1006E8002E08A3003708AF002F08A4008A15832717
:1006F8008A11831603132008A8002108A9002208DC
:10070800AA00862B0800831203132E08B4002F08B2
:10071800B5003008B6000310350D360DB7003708A0
:10072800B800B808031D992B9A2BA22B0030AE00F5
:100738000030AF000030B000722C722C3108B400C9
:100748003208B5003308B6000310350D360DB70072
:100758003708BD00BD08031DB22BB32BBB2B0030DF
:10076800AE000030AF000030B000722C722C3D0893
:100778007B3EB4003408B8072E08B4002F08B50033
:100788003008B60010300310B60CB50CB40CFF3EA0
:10079800031DC72B3408B7003708BD003108B40063
:1007A8003208B5003308B60010300310B60CB50C8B
:1007B800B40CFF3E031DD92B3408B7003708BD061B
:1007C8008030B4003408BD05AF17B217FF30B1054B
:1007D800FF30B2050030B3050030B9000030BA0070
:1007E8000030BB000730B4003408BC00FB2B2E1CC3
:1007F800FE2BFF2B102C3108B90732080311031800
:10080800320A0319082CBA07330803110318330AEC
:1008180003190F2CBB07102C01300310B00CAF0CC0
:10082800AE0CFF3E031D112C01300310B10DB20DAB
:10083800B30DFF3E031D192C0130BC02031D252CEE
:10084800262CFB2B272C0930B4003408BC002C2C98
:100858002E1C2F2C302C412C3108B90732080311DB
:100868000318320A0319392CBA073308031103187D
:10087800330A0319402CBB07412C01300310B00C7C
:10088800AF0CAE0CFF3E031D422C01300310BB0C15
:10089800BA0CB90CFF3E031D4A2C0130BC02031DE3
:1008A800562C572C2C2C582C3908F0003A08F100FB
:1008B8003B08F2003808B4003408F3003D08B500DE
:1008C8003508F4008A1508278A1170088312031363
:1008D800AE007108AF007208B000722C08008312D5
:1008E80003134D09CF004E09D000CF0A0319D00ACF
:1008F8004B084F07D1004C0803184C0A5007D20088
:100908005A08BE005B08BF005C08C000CD30AE00CE
:10091800CC30AF003D30B0005208AB01AB075108F6
:10092800AA01AA078A15F0258A11831203132A0837
:10093800B1002B08B2002C08B3008A1187238A1152
:10094800831203132E08C1002F08C2003008C30009
:100958008A1157218A11831203133E08DA003F08CF
:10096800DB004008DC003730F0005F30F100463033
:10097800F2005A08F3005B08F4005C08F5008A15D9
:100988009C268A110318C92CCA2CD32C3730831201
:100998000313DA005F30DB004630DC00D32C83120F
:1009A80003135208AB01AB075108AA01AA078A151D
:1009B800F0258A11831203132A08B1002B08B2000C
:1009C8002C08B3000030AE008030AF004030B000DB
:1009D8008A1187238A11831203132E08C1002F0856
:1009E800C2003008C3005A08B1005B08B2005C08B6
:1009F800B3006030AE00E530AF003B30B0008A1184
:100A080087238A11831203132E08BE002F08BF0004
:100A18003008C0008A1157218A11831203133E0837
:100A2800F8003F08F9004008FA008A1198268A1150
:100A3800790883120313D401D4077808D301D307A4
:100A4800D41F272D282D2B2DD301D4013F2D540839
:100A5800803AFF0080307F02031D342D6530530239
:100A6800031C372D382D3F2D643083120313D30018
:100A78000030D4003F2D831203135308432D080080
:100A8800831603135408A901A9075308A801A80746
:100A98008A11E1278A11831603132808DB00290825
:100AA800DC002A08DD005B08AB005C08AC005D08D0
:100AB800AD005B08A8005C08A9005D08AA008A11BF
:100AC8009B228A11831603132808D5002908D6000B
:100AD8002A08D7005508AB005608AC005708AD00E7
:100AE800A830A8009230A9003830AA008A119B22A9
:100AF8008A11831603132808BB002908BC002A089A
:100B0800BD005B08AB005C08AC005D08AD009A3026
:100B1800A8003730A900BE30AA008A119B228A118A
:100B2800831603132808B8002908B9002A08BA0050
:100B38008A1113208A11831603133808D80039083C
:100B4800D9003A08DA005808BB005908BC005A080E
:100B5800BD00F730B800C330B9004230BA008A117E
:100B680013208A11831603133808C5003908C600F4
:100B78003A08C7008A11F2258A118316031346081A
:100B8800DF01DF074508DE01DE07DF1FCC2DCD2D95
:100B9800D22DD301D401F12DF12DE82D5F08803A33
:100BA800FF0080307F02031DDB2D65305E02031CD1
:100BB800DE2DDF2DE82D643083160313D3000030BB
:100BC800D400F12DF12DE82D831603135F08D4010D
:100BD800D4075E08D301D307F12D08008316031349
:100BE8004508C9004608CA004708CB0003104A0D4B
:100BF8004B0DCC004C08D200D208031D042E052E44
:100C08000F2E0030C8000030C7000030C60000308A
:100C1800C500972E972E4508C9004608CA00470800
:100C2800CB0017300310CB0CCA0CC90CFF3E031DB8
:100C3800162E4908CC004C08CD00C617FF30C50554
:100C4800FF30C6050030C7054508CE004608CF006E
:100C58004708D000D1018E30D202D21F342E352E53
:100C68005A2E5208803A8F3E03183B2E3C2E472EB0
:100C78000030C8000030C7000030C6000030C50092
:100C8800972E972E472E01300310D10CD00CCF0C85
:100C9800CE0CFF3E031D482E0130C9004908D2077B
:100CA800031D572E582E472E7E2E7E2E18305202A8
:100CB800031C5F2E602E772E0030C8000030C7005E
:100CC8000030C6000030C500972E972E772E0130D1
:100CD800C9000310CE0DCF0DD00DD10DC90B6D2E4F
:100CE8000130D202772ED208031D7B2E7C2E6B2E6C
:100CF8007E2E7E2E4D08031D822E8E2ECE09CF0904
:100D0800D009D109CE0A0319CF0A0319D00A031949
:100D1800D10A8E2E5108C8005008C7004F08C600D7
:100D28004E08C500972E0800780883120313A00008
:100D38007908A1007A08A2000310210D220DA30052
:100D48002308A900A908031DAA2EAB2EB52E003032
:100D5800FB000030FA000030F9000030F8003D2FA9
:100D68003D2F7808A0007908A1007A08A200173062
:100D78000310A20CA10CA00CFF3E031DBC2E2008E2
:100D8800A3002308A400F917FF30F805FF30F90580
:100D98000030FA057808A5007908A6007A08A700A7
:100DA800A8018E30A902A91FDA2EDB2E002F2908F0
:100DB800803A8F3E0318E12EE22EED2E0030FB0024
:100DC8000030FA000030F9000030F8003D2F3D2FC8
:100DD800ED2E01300310A80CA70CA60CA50CFF3EA5
:100DE800031DEE2E0130A0002008A907031DFD2ECB
:100DF800FE2EED2E242F242F18302902031C052F38
:100E0800062F1D2F0030FB000030FA000030F900DB
:100E18000030F8003D2F3D2F1D2F0130A00003109A
:100E2800A50DA60DA70DA80DA00B132F0130A90223
:100E38001D2FA908031D212F222F112F242F242F06
:100E48002408031D282F342FA509A609A709A809D6
:100E5800A50A0319A60A0319A70A0319A80A342F11
:100E68002808FB002708FA002608F9002508F800DA
:100E78003D2F08008A151A268A118B168B176400D5
:100E8800831203131F08E33914389F009F144C2F53
:100E98009F184F2F502F4C2F512F831603131E08C6
:100EA800E000E101831203131E0883160313E20016
:100EB800E3016208E300E20160086204E8006108F7
:100EC8006304E9006908D401D4076808D301D3078B
:100ED8008A1144258A11831603135408E501E5078E
:100EE8005308E401E407831203131F08E339103899
:100EF8009F009F147F2F9F18822F832F7F2F842F6F
:100F0800831603131E08E000E101831203131E0871
:100F180083160313E200E3016208E300E2016008BC
:100F28006204E80061086304E9006908D401D40791
:100F38006808D301D3078A1144258A11831603133D
:100F48005408E701E7075308E601E6076708803A0F
:100F5800E0006508803A6002031DB42F6408660249
:100F6800031CB72FB82FBC2F831203138512BF2F72
:100F78008312031385168B138316031365088312D4
:100F88000313E201E20783160313640883120313B1
:100F9800E101E10783160313670883120313DE01D7
:100FA800DE0783160313660883120313DD01DD07CA
:100FB8008B17432F432F8A111128831603132808F0
:100FC800A0002908A100A2018E30AB002B08A300C5
:100FD800A4018A1583278A11831603132008A80001
:0E0FE8002108A9002208AA00F92F080064348D
:101BBA00DA01DB01DC01DD01DE01DF01E001E10127
:101BCA00E201E301E401E5018A11FA278A15E60038
:101BDA0083018A113E2F83120313AD01AB1FF62D29
:101BEA00F72D002EAA09AB09AA0A0319AB0AAD01FF
:101BFA000314AD0D002E2A08F0002B08F100F201A3
:101C0A008E30FC007C08F3002D08FD007D08F400EE
:101C1A008A1508278A15700883120313AA00710807
:101C2A00AB007208AC00192E0800831603130F17B5
:101C3A008F120F128F110F14FF308500FF308700AB
:101C4A008312031385018701DB3083160313850092
:101C5A0018309100831203139F171F131F1430307B
:101C6A00831603139F006400033083160313810055
:101C7A008B130B138B121530831203139800080071
:101C8A008B1E482E492E8E2E0B1D4C2E4D2E8E2E1F
:101C9A0005306502031C522E532E882E6208CC0191
:101CAA00CC076108CB01CB075E08CE01CE075D08E1
:101CBA00CD01CD078A1173248A1583120313D50027
:101CCA005508E3006608640203186C2E6D2E732E05
:101CDA0005150130D5005508E407862E64306402E4
:101CEA00031C782E792E7F2EE4016308D50055084F
:101CFA00E600862E05110130D5005508E407862E28
:101D0A00862EE5018E2E0130D5005508E5078E2E68
:101D1A008E2E0B118B108B175908FF0058088A005A
:101D2A0057088400560E8300FE0E7E0E0900F21F2D
:101D3A009F2EA02EC62E0030F6000030F70080300D
:101D4A00F8007009F9007109FA007209FB00F90A32
:101D5A000319FA0A0319FB0A7908F6077A0803181D
:101D6A007A0FB82EB92EF7077B0803187B0FBE2E01
:101D7A00BF2EF8077608F0007708F1007808F2001D
:101D8A00C62EF51FC92ECA2EF02E0030F6000030DE
:101D9A00F7008030F8007309F9007409FA00750930
:101DAA00FB00F90A0319FA0A0319FB0A7908F6076C
:101DBA007A0803187A0FE22EE32EF7077B08031836
:101DCA007B0FE82EE92EF8077608F3007708F4006F
:101DDA007808F500F02E8030F2068030F506750896
:101DEA007202031DFE2E74087102031DFE2E730873
:101DFA0070020318012F022F042F0310072F031458
:101E0A00072F072F08007308031D0C2F142F7208C1
:101E1A0071047004031D122F132F2A2F142F003060
:101E2A00F0000030F1000030F200822F822F2A2FBA
:101E3A000130F5007508F30701300310F20CF10CBC
:101E4A00F00CFF3E031D222F2A2FFE307205031DC0
:101E5A002F2F302F1D2F482F482F0130F5007508DE
:101E6A00F3070130F007003003180130F1070030A2
:101E7A0003180130F20701300310F20CF10CF00CD8
:101E8A00FF3E031D412FFF307205031D4D2F4E2FBC
:101E9A00322F5B2F5B2F0130F30201300310F00D5C
:101EAA00F10DF20DFF3E031D532F5B2FF11F5E2F25
:101EBA005F2F502F7318622F632F692FFF30F005A1
:101ECA007F30F105FF30F2050310F30C7308F500BB
:101EDA00F601F70110300310F50DF60DF70DFF3E70
:101EEA00031D702F7508F0047608F1047708F204D0
:101EFA007408031D812F822FF2170800831603131B
:101F0A002308031D892F912F220821042004031D71
:101F1A008F2F902FA72F912F0030A0000030A10003
:101F2A000030A200FF2FFF2FA72F0130A5002508A0
:101F3A00A30701300310A20CA10CA00CFF3E031D45
:101F4A009F2FA72FFE302205031DAC2FAD2F9A2FEE
:101F5A00C52FC52F0130A5002508A3070130A0070A
:101F6A00003003180130A107003003180130A2071E
:101F7A0001300310A20CA10CA00CFF3E031DBE2FC2
:101F8A00FF302205031DCA2FCB2FAF2FD82FD82FF2
:101F9A000130A30201300310A00DA10DA20DFF3ED6
:101FAA00031DD02FD82FA11FDB2FDC2FCD2F2318F5
:101FBA00DF2FE02FE62FFF30A0057F30A105FF308D
:101FCA00A2050310A30C2308A500A601A70110303F
:101FDA000310A50DA60DA70DFF3E031DED2F250825
:101FEA00A0042608A1042708A2042408031DFE2F22
:061FFA00FF2FA2170800F2
:02400E00ECFBC9
:00000001FF
